:020000040800F2
:10000000002000201D0400088F0300089103000851
:1000100000000000000000000000000000000000E0
:100020000000000000000000000000009303000832
:10003000000000000000000095030008970300087E
:100040006D0400086D0400086D0400086D040008CC
:100050006D0400086D0400086D0400086D040008BC
:10006000000000006D0400086D040008000000009E
:100070006D0400086D0400086D0400080000000015
:100080006D0400086D040008000000006D04000805
:10009000000000006D0400086D0400086D040008F5
:1000A000000000006D0400086D0400086D040008E5
:1000B0006D040008000000006D040008000000004E
:1000C000002243088B4274D303098B425FD3030A97
:1000D0008B4244D3030B8B4228D3030C8B420DD3AA
:1000E000FF22090212BA030C8B4202D31212090238
:1000F00065D0030B8B4219D300E0090AC30B8B4276
:1001000001D3CB03C01A5241830B8B4201D38B0323
:10011000C01A5241430B8B4201D34B03C01A5241C8
:10012000030B8B4201D30B03C01A5241C30A8B420B
:1001300001D3CB02C01A5241830A8B4201D38B02F6
:10014000C01A5241430A8B4201D34B02C01A52419A
:10015000030A8B4201D30B02C01A5241CDD2C3090C
:100160008B4201D3CB01C01A524183098B4201D388
:100170008B01C01A524143098B4201D34B01C01A73
:10018000524103098B4201D30B01C01A5241C308EB
:100190008B4201D3CB00C01A524183088B4201D35A
:1001A0008B00C01A524143088B4201D34B00C01A46
:1001B0005241411A00D20146524110467047FFE7B2
:1001C00001B5002000F006F802BDC0460029F7D0B6
:1001D00076E770477047C0460448054B10B5834228
:1001E00003D0044B002B00D0984710BDC400002062
:1001F000C40000200000000006480749091A8B10BF
:10020000C90FC91810B5491003D0044B002B00D0FA
:10021000984710BDC4000020C4000020000000006A
:1002200010B5074C2378002B09D1FFF7D5FF054BFC
:10023000002B02D0044800E000BF0123237010BD52
:10024000C400002000000000B8040008054B10B5F1
:10025000002B03D00449054800E000BFFFF7CCFFA6
:1002600010BDC04600000000C8000020B80400080F
:1002700010B5FA218900FFF723FF0138034B5860BE
:1002800000229A6005321A6010BDC04610E000E0FE
:1002900082B0084B1B680193019B431C00D00130C6
:1002A000002805D0034B1B68DB03F9D50138F7E7BD
:1002B00002B0704710E000E0014B18607047C04684
:1002C000C000002082B00A4A516B012319435163D8
:1002D000526B13400193019BA021C9050A68054B8D
:1002E0001A4080235B0013430B6002B07047C04686
:1002F00000100240FFFCFFFF10B5174A1168802371
:100300005B000B43136001E0012909D0124B1A680E
:100310008023DB00110019401A42F5D00121F3E7D8
:100320000D4B9A680D490A409A609A6807218A43E2
:100330009A60094B9B6838221A42FAD1064A9368A0
:1003400007490B409360074C2000FFF791FF200006
:10035000FFF7B2FF10BDC04600100240FFF0FFFFE4
:10036000FF8FFFFF00127A0010B5FFF7C5FFFFF700
:10037000A9FFA023DB0510229A616420FFF788FF04
:10038000A022D205536910214B405361F5E7704715
:10039000FEE77047704770470D494B681B0C1B0404
:1003A0000C4A1268D204D20C1343802292011343E8
:1003B0004B604B68084A1340084A12681204084808
:1003C000024013434B60074B802212059A6070472E
:1003D00000100240040FFF1FFFFF00FEA40FFF1FCD
:1003E0000000FF0100ED00E010B5002308E09A00D6
:1003F0008021090551180868064950500133DBB2C5
:100400002F2BF4D9044B802292059A60FFF7ACFFA2
:10041000002010BD0000002000ED00E00D488546E2
:10042000FFF7BAFF0C480D490D4A002302E0D458EB
:10043000C4500433C4188C42F9D30A4A0A4C00232E
:1004400001E013600432A242FBD300F011F8FFF781
:10045000CBFFFEE700200020C0000020C4000020E9
:1004600098050008C4000020E0000020FEE700001E
:1004700070B500260C4C0D4D641BA410A64209D18A
:10048000002600F019F80A4C0A4D641BA410A6427D
:1004900005D170BDB300EB5898470136EEE7B300C5
:1004A000EB5898470136F2E7D0040008D004000862
:1004B000D4040008D0040008F8B5C046F8BC08BC55
:1004C0009E467047F8B5C046F8BC08BC9E467047CB
:0404D0004D020008D1
:0404D40021020008F9
:1004D8000000000000000000000000000000000014
:1004E8000000000000000000000000000000000004
:1004F80000000000000000000000000000000000F4
:1005080000000000000000000000000000000000E3
:1005180000000000000000000000000000000000D3
:1005280000000000000000000000000000000000C3
:1005380000000000000000000000000000000000B3
:1005480000000000000000000000000000000000A3
:100558000000000000000000000000000000000093
:100568000000000000000000000000000000000083
:100578000000000000000000000000000000000073
:100588000000000000000000000000000000000063
:0405980000127A00D3
:040000050800041DCE
:00000001FF
