:020000040800F2
:100000000010002011030008FD020008FF02000894
:1000100000000000000000000000000000000000E0
:1000200000000000000000000000000001030008C4
:1000300000000000000000000303000805030008A2
:100040008503000885030008850300088503000870
:100050008503000885030008850300088503000860
:100060000000000085030008850300080000000070
:1000700085030008850300088503000800000000D0
:1000800085030008850300080000000085030008C0
:1000900000000000850300088503000885030008B0
:1000A00000000000850300088503000885030008A0
:1000B0008503000800000000850300080000000020
:1000C000002243088B4274D303098B425FD3030A97
:1000D0008B4244D3030B8B4228D3030C8B420DD3AA
:1000E000FF22090212BA030C8B4202D31212090238
:1000F00065D0030B8B4219D300E0090AC30B8B4276
:1001000001D3CB03C01A5241830B8B4201D38B0323
:10011000C01A5241430B8B4201D34B03C01A5241C8
:10012000030B8B4201D30B03C01A5241C30A8B420B
:1001300001D3CB02C01A5241830A8B4201D38B02F6
:10014000C01A5241430A8B4201D34B02C01A52419A
:10015000030A8B4201D30B02C01A5241CDD2C3090C
:100160008B4201D3CB01C01A524183098B4201D388
:100170008B01C01A524143098B4201D34B01C01A73
:10018000524103098B4201D30B01C01A5241C308EB
:100190008B4201D3CB00C01A524183088B4201D35A
:1001A0008B00C01A524143088B4201D34B00C01A46
:1001B0005241411A00D20146524110467047FFE7B2
:1001C00001B5002000F006F802BDC0460029F7D0B6
:1001D00076E770477047C04610B5064C2378002B71
:1001E00007D1054B002B02D0044800E000BF0123DB
:1001F000237010BDC0000020000000008004000833
:10020000044B10B5002B03D00349044800E000BFA5
:1002100010BDC04600000000C4000020800400089B
:1002200000B583B083001B181801C01A00020649EC
:10023000FFF746FF0190C046019B5A1E0192002B1A
:10024000F9D103B000BDC046581B000010B5274BC4
:100250009968802252040A439A605A6B01210A432A
:100260005A63A023DB051A680C208243082422432A
:100270001A609A6802439A60DA6882430838024337
:10028000DA601A6AEC3002431A621A68ED38824367
:100290000A431A6021E0A023DB059A69012002438A
:1002A0009A61C0469A6A02439A6201310929F2D9D9
:1002B0000F48FFF7B5FF00F04BF800210BE0A0233B
:1002C000DB059A69012002439A61C046C0469A6ADA
:1002D00002439A6201310429F1D90548FFF7A0FFD2
:1002E000044A90230449D1500021DFE70010024066
:1002F0008813000000200240012800007047FEE73C
:1003000070477047704700000000000000000000C8
:100310001348002303801348854600F043F8124831
:100320001249134A002302E0D458C4500433C418BD
:100330008C42F9D30F4A104C002301E013600432C1
:10034000A242FBD300F078F800F05CF8FEE7C0466C
:10035000C04603B509480A490160C04603BD000014
:100360000410024000100020C0000020C000002047
:1003700060050008C0000020DC0000209020024042
:1003800000280000FEE782B08300181803011B1A42
:100390009B000193C046019B5A1E0192002BF9D18C
:1003A00002B0704710B5134C6368134A1340636082
:1003B000124B802212059A603220FFF7E4FF236E71
:1003C0000122134323660B4B1B6E9B07FBD5094A87
:1003D000936807218B4304390B439360054B9A685C
:1003E00038231340182BF9D1024A136804490B40F3
:1003F000136010BD00100240FFFF00FE00ED00E0A2
:10040000FFFEFFFF10B5002308E09A0080210905D8
:1004100051180868064950500133DBB22F2BF4D92C
:10042000044B802292059A60FFF710FF002010BD58
:100430000000002000ED00E070B500260C4C0D4DD2
:10044000641BA410A64209D1002600F019F80A4C3A
:100450000A4D641BA410A64205D170BDB300EB5831
:1004600098470136EEE7B300EB5898470136F2E7BC
:1004700098040008980400089C04000898040008E8
:10048000F8B5C046F8BC08BC9E467047F8B5C046F3
:08049000F8BC08BC9E46704751
:040498000102000855
:04049C00D90100087A
:1004A000000000000000000000000000000000004C
:1004B000000000000000000000000000000000003C
:1004C000000000000000000000000000000000002C
:1004D000000000000000000000000000000000001C
:1004E000000000000000000000000000000000000C
:1004F00000000000000000000000000000000000FC
:1005000000000000000000000000000000000000EB
:1005100000000000000000000000000000000000DB
:1005200000000000000000000000000000000000CB
:1005300000000000000000000000000000000000BB
:1005400000000000000000000000000000000000AB
:10055000000000000000000000000000000000009B
:0400000508000311DB
:00000001FF
