:020000040800F2
:10000000000C0020650100085B0100085D0100088C
:1000100000000000000000000000000000000000E0
:100020000000000000000000000000005F01000868
:1000300000000000000000006101000863010008EA
:10004000000000000000000000000000B5010008F2
:10005000B5010008B5010008B5010008B5010008A8
:100060000000000000000000000000000000000090
:10007000B5010008B5010008B50100080000000046
:1000800000000000B501000800000000B5010008F4
:10009000000000000000000000000000B5010008A2
:1000A00000000000B501000800000000B5010008D4
:1000B0000000000000000000000000000000000040
:1000C0000448054B10B5834203D0044B002B00D0ED
:1000D000984710BD00000020000000200000000034
:1000E00006480749091A8B10C90FC91810B54910DD
:1000F00003D0044B002B00D0984710BD0000002017
:10010000000000200000000010B5074C2378002BF1
:1001100009D1FFF7D5FF054B002B02D0044800E0C2
:1001200000BF0123237010BD00000020000000006C
:1001300060020008054B10B5002B03D004490548A8
:1001400000E000BFFFF7CCFF10BDC046000000007C
:100150000400002060020008FEE77047FEE77047D9
:10016000704770470D4885460D480E490E4A0023DA
:1001700002E0D458C4500433C4188C42F9D30B4A5B
:100180000B4C002301E013600432A242FBD300F0C9
:1001900013F800F041F8FFF7DFFFFEE7000C002046
:1001A0000000002000000020800200080000002065
:1001B0001C000020FEE700001049114B4A681B6834
:1001C000120C12049BB2134382B04B600D4B0E48CD
:1001D0001B684A681B0403400C48024013438022FA
:1001E0004B600B4B12059A600A4B0193C046019B72
:1001F0005A1E0192002BF9D102B070470010024044
:100200000001FF1F4401FF1F0000FF01FFFF00FE70
:1002100000ED00E0C027090070B500260C4C0D4D24
:10022000641BA410A64209D1002600F019F80A4C5C
:100230000A4D641BA410A64205D170BDB300EB5853
:1002400098470136EEE7B300EB5898470136F2E7DE
:1002500078020008780200087C0200087802000892
:10026000F8B5C046F8BC08BC9E467047F8B5C04615
:08027000F8BC08BC9E46704773
:040278003501000844
:04027C00090100086C
:040000050800016589
:00000001FF
