:020000040800F2
:10000000001000208D010008810100088301000814
:1000100000000000000000000000000000000000E0
:100020000000000000000000000000008501000842
:10003000000000000000000087010008890100089E
:100040000902000809020008090200080902000864
:100050000902000809020008090200080902000854
:10006000000000000902000809020008000000006A
:100070000902000809020008090200080000000047
:100080000902000809020008000000000902000837
:100090000000000009020008090200080902000827
:1000A0000000000009020008090200080902000817
:1000B000090200080000000009020008000000001A
:1000C00010B5064C2378002B07D1054B002B02D02E
:1000D000044800E000BF0123237010BDC0000020D1
:1000E0000000000004030008044B10B5002B03D0EF
:1000F0000349044800E000BF10BDC04600000000F6
:10010000C40000200403000880220C4B1206D96BA7
:100110000A43DA63596D0A4A11408022D2020A4327
:100120005A658022074BD203DA60012219690A431B
:100130001A61102219690A431A61704700100240BF
:10014000FFFFF3FF007C004001230C4A10B5516B08
:100150000C200B435363A0230022DB055A6119686E
:10016000043281430A431A600822D96881430A4352
:10017000DA60FFF7C9FF00F0D3F8C0460010024074
:100180007047FEE77047704770470000144800232F
:1001900003801448854614481449154A002302E098
:1001A000D458C4500433C4188C42F9D311481249AE
:1001B000124A002302E0D458C4500433C4188C42BD
:1001C000F9D30F4A0F4C002301E013600432A2421E
:1001D000FBD300F01BF800F071F800F057F8FEE7D1
:1001E0000410024000100020E0030020B8040020AA
:1001F000F8030008C0000020C0000020F803000839
:10020000C0000020DC000020FEE70000184A194B67
:1002100012681948120459680240184882B0014017
:100220000A4380215A60164A09059160154A0192D5
:10023000C046019A511E0191002AF9D1196E01326E
:100240000A431A660222196E1142FCD007229968ED
:100250009143043A0A4338219A609A680A40182A5E
:10026000FBD11A6808490A401A6002B07047C046BC
:10027000A40FFF1F001002400000FF01FFFF00FE5F
:1002800000ED00E0721F0000FFFEFFFF802310B5AD
:100290000749084A1B051868C85004339342FAD12D
:1002A0008022054B92059A60FFF74EFF002010BD9B
:1002B00000000018C000000800ED00E070B5002646
:1002C0000C4C0D4D641BA410A64209D1002600F071
:1002D00019F80A4C0A4D641BA410A64205D170BD42
:1002E000B300EB5898470136EEE7B300EB58984758
:1002F0000136F2E730030008300300083403000839
:1003000030030008F8B5C046F8BC08BC9E467047EC
:10031000F8B5C046F8BC08BC9E4670470000000017
:1003200001B40248844601BC604700BF3504002088
:04033000E9000008D8
:04033400C1000008FC
:1003380000000000000000000000000000000000B5
:1003480000000000000000000000000000000000A5
:100358000000000000000000000000000000000095
:100368000000000000000000000000000000000085
:100378000000000000000000000000000000000075
:100388000000000000000000000000000000000065
:100398000000000000000000000000000000000055
:1003A8000000000000000000000000000000000045
:1003B8000000000000000000000000000000000035
:1003C8000000000000000000000000000000000025
:1003D8000000000000000000000000000000000015
:1003E8000000000000000000000000000000000005
:1003F80083230222584310B50F4B104C8008A042AB
:100408000CD8DA69022298611969114319611968CF
:100418001142FCD059680A435A6010BDD96908498D
:100428009C61401819691143196119681142FCD07F
:10043800596811435960E2E7007C004060EA000017
:10044800A015FFFF70B5FA20A02402250C4B0D4A19
:10045800C0001A60E405FFF7CBFFC820A561FFF7CD
:10046800C7FFFA20A562C000FFF7C2FF0225962049
:10047800A5614000FFF7BCFF9620A5624000F3E7A6
:1004880090200240012800000121054A13698B438E
:100498001361044AD36B8B40CB40D3637047C0468B
:1004A800007C004000100240000000000000000036
:1004B800C04607B503480168012291430160C04660
:0804C80007BD00009020024076
:040000050800018D61
:00000001FF
