:020000040800F2
:100000000010002085010008790100087B0100082C
:1000100000000000000000000000000000000000E0
:100020000000000000000000000000007D0100084A
:1000300000000000000000007F01000881010008AE
:100040000102000801020008010200080102000884
:100050000102000801020008010200080102000874
:10006000000000000102000801020008000000007A
:10007000010200080102000801020008000000005F
:10008000010200080102000800000000010200084F
:10009000000000000102000801020008010200083F
:1000A000000000000102000801020008010200082F
:1000B000010200080000000001020008000000002A
:1000C00010B5064C2378002B07D1054B002B02D02E
:1000D000044800E000BF0123237010BDC0000020D1
:1000E0000000000010030008044B10B5002B03D0E3
:1000F0000349044800E000BF10BDC04600000000F6
:10010000C4000020100300080A4BD96B802212069D
:100110000A43DA63596D084A11408022D2020A4329
:100120005A65064B8022D203DA601A6901210A431C
:100130001A61704700100240FFFFF3FF007C00408F
:1001400010B50C4A536B01210B435363A023DB050D
:1001500000225A611A680B318A43042002431A6054
:10016000DA688A4304390A43DA60FFF7CDFF00F00A
:10017000DBF8C046001002407047FEE7704770474A
:100180007047000014480023038014488546144833
:100190001449154A002302E0D458C4500433C4184B
:1001A0008C42F9D311481249124A002302E0D45874
:1001B000C4500433C4188C42F9D30F4A0F4C0023A7
:1001C00001E013600432A242FBD300F029F800F0F2
:1001D0007BF800F05FF8FEE70410024000100020FA
:1001E000E0030020D804002000040008C000002024
:1001F000C000002000040008C0000020DC00002037
:10020000FEE782B083001B185B011B180193C046F8
:10021000019B5A1E0192002BF9D102B070470000D9
:1002200010B5164C6368164A1340164A1268120439
:1002300015490A4013436360144B802212059A60EB
:100240003220FFF7DEFF236E0122134323660B4BA0
:100250001B6E9B07FBD5094A936807218B43043922
:100260000B439360054B9A6838231340182BF9D140
:10027000024A136806490B40136010BD001002408B
:10028000FFFF00FEA40FFF1F0000FF0100ED00E0D4
:10029000FFFEFFFF10B5002308E09A00802109054A
:1002A00051180868064950500133DBB22F2BF4D99E
:1002B000044B802292059A60FFF742FF002010BD98
:1002C0000000002000ED00E070B500260C4C0D4D44
:1002D000641BA410A64209D1002600F019F80A4CAC
:1002E0000A4D641BA410A64205D170BDB300EB58A3
:1002F00098470136EEE7B300EB5898470136F2E72E
:1003000038030008380300083C03000838030008DD
:10031000F8B5C046F8BC08BC9E467047F8B5C04664
:10032000F8BC08BC9E46704701B40248844601BC34
:08033000604700BF59040020E2
:04033800E9000008D0
:04033C00C1000008F4
:1003400000000000000000000000000000000000AD
:10035000000000000000000000000000000000009D
:10036000000000000000000000000000000000008D
:10037000000000000000000000000000000000007D
:10038000000000000000000000000000000000006D
:10039000000000000000000000000000000000005D
:1003A000000000000000000000000000000000004D
:1003B000000000000000000000000000000000003D
:1003C000000000000000000000000000000000002D
:1003D000000000000000000000000000000000001D
:1003E000000000000000000000000000000000000D
:1003F00000000000000000000000000000000000FD
:100400008201121852001218920817E0174B19694E
:10041000102001431961D96915498C466244154978
:10042000996119690E3801431961104B1B689B07CC
:10043000FBD50E494B68022003434B600D4B9A429B
:10044000E4D80A4B1969102001431961D9699A61EE
:100450001A6902210A431A61044B1B689B07FBD5EA
:10046000024A536802210B4353607047007C0040EE
:10047000A015FFFF60EA000070B5FA24E400200038
:10048000FFF7BEFFA025ED050226AE61C820FFF7ED
:10049000B7FFAE622000FFF7B3FFA025ED050226EF
:1004A000AE61962464002000FFF7AAFFAE62200030
:1004B000FFF7A6FFF1E7054A136901218B4313619A
:1004C000034AD36B5B005B08D3637047007C00403A
:1004D00000100240000000000000000000000000CA
:1004E000C04607B503480168012291430160C04638
:0804F00007BD0000902002404E
:040000050800018569
:00000001FF
