:020000040800F2
:1000000000100020D1010008C5010008C701000848
:1000100000000000000000000000000000000000E0
:10002000000000000000000000000000C9010008FE
:100030000000000000000000CB010008CD01000816
:100040004D0200084D0200084D0200084D02000854
:100050004D0200084D0200084D0200084D02000844
:10006000000000004D0200084D02000800000000E2
:100070004D0200084D0200084D020008000000007B
:100080004D0200084D020008000000004D0200086B
:10009000000000004D0200084D0200084D0200085B
:1000A000000000004D0200084D0200084D0200084B
:1000B0004D020008000000004D0200080000000092
:1000C00010B5064C2378002B07D1054B002B02D02E
:1000D000044800E000BF0123237010BDC0000020D1
:1000E0000000000048030008044B10B5002B03D0AB
:1000F0000349044800E000BF10BDC04600000000F6
:10010000C4000020480300080C4BD96B8022120663
:100110000A43DA63596D0A4A11408022D2020A4327
:100120005A65084B8022D203DA601A6901210A431A
:100130001A611A690F310A431A61704700100240B0
:10014000FFFFF3FF007C004070B51B4A536B012199
:100150000B435363536B202003435363A023DB05FE
:100160000021596119680C24A14304252943196011
:10017000D968A143043C2143D960104B1968283445
:10018000A14301431960D968A1430143D96099682B
:1001900021439960186A0A490840C021C9000143F7
:1001A000196293681B021B0A842189050B43936023
:1001B000FFF7AAFF00F0D4F800100240001400502E
:1001C000FFF0FFFF7047FEE7704770477047000081
:1001D0001448002303801448854614481449154ADE
:1001E000002302E0D458C4500433C4188C42F9D31D
:1001F00011481249124A002302E0D458C450043373
:10020000C4188C42F9D30F4A0F4C002301E013604D
:100210000432A242FBD300F029F800F071F800F09C
:1002200055F8FEE70410024000100020E003002013
:100230000805002038040008C0000020C00000208D
:1002400038040008C0000020DC000020FEE782B077
:1002500083001B185B011B180193C046019B5A1EAB
:100260000192002BF9D102B07047000010B5124C7A
:100270006368124A1340124A1268120411490A4074
:1002800013436360104B802212059A603220FFF7FF
:10029000DEFF236E012213432366074B1B6E9B0771
:1002A000FBD5054A936807218B439360024B9B68FB
:1002B00038221A42FAD110BD00100240FFFF00FEA2
:1002C000A40FFF1F0000FF0100ED00E010B50023A8
:1002D00008E09A0080210905511808680649505025
:1002E0000133DBB22F2BF4D9044B802292059A60A4
:1002F000FFF72AFF002010BD0000002000ED00E005
:1003000070B500260C4C0D4D641BA410A64209D1FB
:10031000002600F019F80A4C0A4D641BA410A642EE
:1003200005D170BDB300EB5898470136EEE7B30036
:10033000EB5898470136F2E7700300087003000895
:100340007403000870030008F8B5C046F8BC08BC88
:100350009E467047F8B5C046F8BC08BC9E4670473C
:1003600001B40248844601BC604700BF4904002034
:04037000E900000898
:04037400C1000008BC
:100378000000000000000000000000000000000075
:100388000000000000000000000000000000000065
:100398000000000000000000000000000000000055
:1003A8000000000000000000000000000000000045
:1003B8000000000000000000000000000000000035
:1003C8000000000000000000000000000000000025
:1003D8000000000000000000000000000000000015
:1003E8000000000000000000000000000000000005
:1003F80000000000000000000000000000000000F5
:1004080000000000000000000000000000000000E4
:1004180000000000000000000000000000000000D4
:1004280000000000000000000000000000000000C4
:100438008201121852001218920813E0134BD9695E
:1004480013498C4662441349996119690220014392
:1004580019610E4B1B689B07FBD50C494B680220A2
:1004680003434B600B4B9A42E8D8084BD9699A6111
:100478001A6902210A431A61044B1B689B07FBD5C2
:10048800024A536802210B4353607047007C0040C6
:10049800A015FFFF60EA000010B51E48FFF7C8FF6F
:1004A8001D494B681B0C1B041C4A13434B601A4B19
:1004B8001B685B05FBD5184B0022DA60196880229F
:1004C80052040A431A60144B1B689B01FBD4124A5E
:1004D80093681B0C1B0402210B4393600E4B9A6814
:1004E80038231340102BF9D111E00B494A68120C3C
:1004F80012049E231B02134323434B60FA2000017E
:10050800FFF796FF223480239B009C42EDD3012401
:10051800F9E7C0467017000000100240019E000075
:10052800054A136901218B431361044AD36B5B00AD
:100538005B08D3637047C046007C0040001002404F
:10054800C04607B503480168012291430160C046CF
:0805580007BD000090200240E5
:04000005080001D11D
:00000001FF
