:020000040800F2
:100000000010002019020008E9010008F3010008AF
:1000100000000000000000000000000000000000E0
:10002000000000000000000000000000FB010008CC
:100030000000000000000000050200080F02000898
:100040009502000895020008950200089502000834
:100050009502000895020008950200089502000824
:100060000000000095020008950200080000000052
:1000700095020008950200089502000800000000A3
:100080009502000895020008000000009502000893
:100090000000000095020008950200089502000883
:1000A0000000000095020008950200089502000873
:1000B0009502000800000000950200080000000002
:1000C00010B5064C2378002B07D1054B002B02D02E
:1000D000044800E000BF0123237010BDC0000020D1
:1000E00000000000E0030008044B10B5002B03D013
:1000F0000349044800E000BF10BDC04600000000F6
:10010000C4000020E003000880B500AF1F4B5A6B0D
:100110001E4B01210A435A63A023DB051B680C22F6
:1001200093431A00A023DB0508210A431A60A02389
:10013000DB05DB680C2293431A00A023DB050821B2
:100140000A43DA60A023DB059A68A023DB050C21B3
:100150000A439A60A023DB051B6AF02293431A002E
:10016000A023DB0560210A431A62084B9B681B022F
:100170001A0A064B882149050A439A6000F008F8DC
:1001800000F03AF900231800BD4680BD001002407F
:1001900080B500AF114BDA6B104B802109060A4382
:1001A000DA630E4B5B6D0E4A1A400C4B8021C9027C
:1001B0000A435A650B4B8022D203DA60094B1A6955
:1001C000084B01210A431A61064B1A69054B10219D
:1001D0000A431A61C046BD4680BDC04600100240B9
:1001E000FFFFF3FF007C004080B500AFC046BD4676
:1001F00080BD80B500AFC046FDE780B500AFC0460A
:10020000BD4680BD80B500AFC046BD4680BD80B54F
:1002100000AFC046BD4680BD14480023038014488B
:10022000854614481449154A002302E0D458C450A6
:100230000433C4188C42F9D311481249124A0023DE
:1002400002E0D458C4500433C4188C42F9D30F4A86
:100250000F4C002301E013600432A242FBD300F0F4
:100260001BF800F099F800F053F8FEE70410024084
:1002700000100020E003002038050020D004000812
:10028000C0000020C0000020D0040008C0000020F2
:10029000DC000020FEE7000080B500AF174B5B6874
:1002A000174A13401900174B1B681B04164A1A40C3
:1002B000124B0A435A60154B802212059A60322075
:1002C00000F054F80D4B1A6E0C4B01210A431A66CC
:1002D000C0460A4B1B6E02221340FAD0074B9A68A5
:1002E000064B07218A439A60C046044B9B6838221C
:1002F0001340FAD1C046C046BD4680BD0010024042
:10030000FFFF00FEA40FFF1F0000FF0100ED00E053
:1003100080B582B000AF80231B053B60FB1D00222F
:100320001A700FE0FB1D1B789B003A68D318FA1D6A
:10033000127819680B4B9200D150FB1D1A78FB1DE7
:1003400001321A70FB1D1B782F2BEBD9064B802234
:1003500092059A60FFF7D8FE00231800BD4602B050
:1003600080BDC0460000002000ED00E080B584B0F4
:1003700000AF78607A6813009B009B185B019B18A4
:10038000FB60C046FB685A1EFA60002BF9D1C046DC
:10039000C046BD4604B080BD70B500260C4C0D4D66
:1003A000641BA410A64209D1002600F019F80A4CDB
:1003B0000A4D641BA410A64205D170BDB300EB58D2
:1003C00098470136EEE7B300EB5898470136F2E75D
:1003D00008040008080400080C04000808040008C9
:1003E000F8B5C046F8BC08BC9E467047F8B5C04694
:1003F000F8BC08BC9E46704701B40248844601BC64
:08040000604700BFE10300208A
:04040800E9000008FF
:04040C00C100000823
:1004100000000000000000000000000000000000DC
:1004200000000000000000000000000000000000CC
:1004300000000000000000000000000000000000BC
:1004400000000000000000000000000000000000AC
:10045000000000000000000000000000000000009C
:10046000000000000000000000000000000000008C
:10047000000000000000000000000000000000007C
:10048000000000000000000000000000000000006C
:10049000000000000000000000000000000000005C
:1004A000000000000000000000000000000000004C
:1004B000000000000000000000000000000000003C
:1004C000000000000000000000000000000000002C
:1004D00080B584B000AF184B180000F033F801234A
:1004E000FB600F23BB6004237B600123FB6015E0EE
:1004F000124B5B681B0C1A047B685B031A43BB68D6
:100500005B021A4311000D4BFA680A435A600C4B08
:10051000180000F017F8FB682233FB60FA688023AC
:100520009B009A42E4D3BB680F2B02D0BB68013317
:1005300000E00023BB60D8E7701700000010024005
:100540008813000080B584B000AF78607A6813002B
:100550009B019B185B009B189B08FB601CE01E4BDB
:10056000DB69BB60FB681D4A94466344FB601A4B21
:100570001B4A9A61184B1A69174B02210A431A61E8
:10058000C046154B1B6802221340FAD0124B5A6822
:10059000114B02210A435A60FB68114A9342DED88C
:1005A0000D4BDB69BB600C4BFA689A610A4B1A6908
:1005B000094B02210A431A61C046074B1B680222FD
:1005C0001340FAD0044B5A68034B02210A435A6085
:1005D000C046BD4604B080BD007C0040A015FFFFB2
:1005E00060EA000080B500AF074B1A69064B012195
:1005F0008A431A61054BDA6B044B52005208DA63E6
:10060000C046BD4680BDC046007C00400010024090
:10061000C04607B503480168012291430160C04606
:0806200007BD0000902002401C
:0400000508000219D4
:00000001FF
