:020000040800F2
:100000000010002091010008610100086B01000848
:1000100000000000000000000000000000000000E0
:100020000000000000000000000000007301000854
:1000300000000000000000007D01000887010008AA
:10004000E1010008E1010008E1010008E101000808
:10005000E1010008E1010008E1010008E1010008F8
:1000600000000000E1010008E101000800000000BC
:10007000E1010008E1010008E101000800000000C2
:10008000E1010008E101000800000000E1010008B2
:1000900000000000E1010008E1010008E1010008A2
:1000A00000000000E1010008E1010008E101000892
:1000B000E101000800000000E1010008000000006C
:1000C0000448054B10B5834203D0044B002B00D0ED
:1000D000984710BDC0000020C000002000000000B4
:1000E00006480749091A8B10C90FC91810B54910DD
:1000F00003D0044B002B00D0984710BDC000002057
:10010000C00000200000000010B5074C2378002B31
:1001100009D1FFF7D5FF054B002B02D0044800E0C2
:1001200000BF0123237010BDC000002000000000AC
:10013000E8020008054B10B5002B03D00449054820
:1001400000E000BFFFF7CCFF10BDC046000000007C
:10015000C4000020E802000880B500AFC046FDE7FB
:1001600080B500AFC046BD4680BD80B500AFC0467B
:10017000FDE780B500AFC046BD4680BD80B500AF8D
:10018000C046BD4680BD80B500AFC046BD4680BDFF
:100190000D48854600F026F80C480D490D4A00230D
:1001A00002E0D458C4500433C4188C42F9D30A4A2C
:1001B0000A4C002301E013600432A242FBD300F09A
:1001C0006FF800F03FF8FEE700100020C0000020AC
:1001D000C0000020C8030008C0000020DC00002090
:1001E000FEE7000080B500AF104B5B681B0C1A04E3
:1001F0000F4B1B68DB04DB0C1A430C4B802189017D
:100200000A435A60094B5B680A4A134019000A4BBB
:100210001B681B04094A1A40044B0A435A60084BE6
:10022000802212059A60C046BD4680BD0010024083
:10023000040FFF1FFFFF00FEA40FFF1F0000FF01C0
:1002400000ED00E080B582B000AF80231B053B606D
:10025000FB1D00221A700FE0FB1D1B789B003A6803
:10026000D318FA1D127819680B4B9200D150FB1D60
:100270001A78FB1D01321A70FB1D1B782F2BEBD94E
:10028000064B802292059A60FFF766FF0023180054
:10029000BD4602B080BDC0460000002000ED00E079
:1002A00070B500260C4C0D4D641BA410A64209D15C
:1002B000002600F019F80A4C0A4D641BA410A6424F
:1002C00005D170BDB300EB5898470136EEE7B30097
:1002D000EB5898470136F2E70003000800030008D6
:1002E0000403000800030008F8B5C046F8BC08BCC9
:1002F0009E467047F8B5C046F8BC08BC9E4670479D
:0403000035010008BB
:0403040009010008E3
:1003080000000000000000000000000000000000E5
:1003180000000000000000000000000000000000D5
:1003280000000000000000000000000000000000C5
:1003380000000000000000000000000000000000B5
:1003480000000000000000000000000000000000A5
:100358000000000000000000000000000000000095
:100368000000000000000000000000000000000085
:100378000000000000000000000000000000000075
:100388000000000000000000000000000000000065
:100398000000000000000000000000000000000055
:1003A8000000000000000000000000000000000045
:1003B8000000000000000000000000000000000035
:04000005080001915D
:00000001FF
