:020000040800F2
:10000000000C0020D1010008C1010008C301000854
:1000100000000000000000000000000000000000E0
:10002000000000000000000000000000C501000802
:100030000000000000000000C7010008C90100081E
:100040000000000000000000000000004502000861
:100050004502000845020008450200084502000864
:100060000000000000000000000000000000000090
:100070004502000845020008450200080000000093
:1000800000000000450200080000000045020008D2
:100090000000000000000000000000004502000811
:1000A00000000000450200080000000045020008B2
:1000B0000000000000000000000000000000000040
:1000C00010B5064C2378002B07D1054B002B02D02E
:1000D000044800E000BF0123237010BD0000002091
:1000E00000000000FC020008044B10B5002B03D0F8
:1000F0000349044800E000BF10BDC04600000000F6
:1001000004000020FC02000837B58022274B52046F
:100110009968274C0A439A600222596B01250A43C9
:100120005A630C230822216899430A432260A2687B
:100130001A43A260E2689A43083B1343E3607023CA
:10014000226A9A43303B134303222362236893437A
:100150002B43236017490091C046009B5A1E009212
:10016000002BF9D1144B154A1A600A23A2692A43BD
:10017000A261C046A26A013B2A43A262002BF5D1CC
:100180000191C046019B5A1E0192002BF9D100F04B
:100190003FF80523A2692A43A261C046C046A26A6D
:1001A000013B2A43A262002BF4D1D3E700100240A6
:1001B0000004005092350000902002400128000009
:1001C0007047FEE77047704770470000000000006E
:1001D0001448002303801448854614481449154ADE
:1001E000002302E0D458C4500433C4188C42F9D31D
:1001F000114A124C002301E013600432A242FBD3E7
:1002000000F022F800F056F8FFF77EFFFEE7C04648
:10021000C04607B50A48012102688A430260C04609
:1002200007BD000004100240000C00200000002068
:10023000000000201C030008000000201C0000201B
:1002400090200240FEE70000154B16495A6882B024
:100250000A4080215A60144A09059160134A0192AC
:10026000C046019A511E0191002AF9D1196E01323E
:100270000A431A660222196E1142FCD007229968BD
:100280009143043A0A4338219A609A680A40182A2E
:10029000FBD11A6806490A401A6002B07047C0468E
:1002A00000100240FFFF00FE00ED00E0983A000061
:1002B000FFFEFFFF70B500260C4C0D4D641BA41013
:1002C000A64209D1002600F019F80A4C0A4D641B19
:1002D000A410A64205D170BDB300EB589847013673
:1002E000EEE7B300EB5898470136F2E71403000835
:1002F000140300081803000814030008F8B5C046EA
:10030000F8BC08BC9E467047F8B5C046F8BC08BCAF
:040310009E4670474E
:04031400E9000008F4
:04031800C100000818
:04000005080001D11D
:00000001FF
