:020000040800F2
:10000000000C002091010008610100086B0100084C
:1000100000000000000000000000000000000000E0
:100020000000000000000000000000007301000854
:1000300000000000000000007D01000887010008AA
:10004000000000000000000000000000E1010008C6
:10005000E1010008E1010008E1010008E1010008F8
:100060000000000000000000000000000000000090
:10007000E1010008E1010008E101000800000000C2
:1000800000000000E101000800000000E10100089C
:10009000000000000000000000000000E101000876
:1000A00000000000E101000800000000E10100087C
:1000B0000000000000000000000000000000000040
:1000C0000448054B10B5834203D0044B002B00D0ED
:1000D000984710BD00000020000000200000000034
:1000E00006480749091A8B10C90FC91810B54910DD
:1000F00003D0044B002B00D0984710BD0000002017
:10010000000000200000000010B5074C2378002BF1
:1001100009D1FFF7D5FF054B002B02D0044800E0C2
:1001200000BF0123237010BD00000020000000006C
:10013000B8020008054B10B5002B03D00449054850
:1001400000E000BFFFF7CCFF10BDC046000000007C
:1001500004000020B802000880B500AFC046FDE7EB
:1001600080B500AFC046BD4680BD80B500AFC0467B
:10017000FDE780B500AFC046BD4680BD80B500AF8D
:10018000C046BD4680BD80B500AFC046BD4680BDFF
:100190000D4885460D480E490E4A002302E0D4580A
:1001A000C4500433C4188C42F9D30B4A0B4C0023BF
:1001B00001E013600432A242FBD300F013F800F018
:1001C00057F8FFF7C9FFFEE7000C002000000020F1
:1001D00000000020D8020008000000201C000020C1
:1001E000FEE7000080B500AF104B5B681B0C1904E4
:1001F0000F4B1B681B041A0C0C4B0A435A600B4B29
:100200005B680C4A134019000B4B1B681B040B4A1C
:100210001A40064B0A435A60094B802212059A6025
:10022000C82000F00FF8C046BD4680BD0010024057
:100230000001FF1FFFFF00FE4401FF1F0000FF0140
:1002400000ED00E080B584B000AF78607B68074ABD
:100250005343FB60C046FB685A1EFA60002BF9D17D
:10026000C046C046BD4604B080BDC046B80B0000C5
:1002700070B500260C4C0D4D641BA410A64209D18C
:10028000002600F019F80A4C0A4D641BA410A6427F
:1002900005D170BDB300EB5898470136EEE7B300C7
:1002A000EB5898470136F2E7D0020008D002000868
:1002B000D4020008D0020008F8B5C046F8BC08BC5B
:1002C0009E467047F8B5C046F8BC08BC9E467047CD
:0402D00035010008EC
:0402D4000901000814
:04000005080001915D
:00000001FF
