:020000040800F2
:1000000000100020D1010008B9010008BB01000860
:1000100000000000000000000000000000000000E0
:10002000000000000000000000000000BD0100080A
:100030000000000000000000BF010008C10100082E
:100040004502000845020008450200084502000874
:100050004502000845020008450200084502000864
:1000600000000000450200084502000800000000F2
:100070004502000845020008450200080000000093
:100080004502000845020008000000004502000883
:100090000000000045020008450200084502000873
:1000A0000000000045020008450200084502000863
:1000B00045020008000000004502000800000000A2
:1000C00010B5064C2378002B07D1054B002B02D02E
:1000D000044800E000BF0123237010BDC0000020D1
:1000E000000000002C030008044B10B5002B03D0C7
:1000F0000349044800E000BF10BDC04600000000F6
:10010000C40000202C03000837B580220125264BAF
:1001100052049968A0240A439A605A6BE4052A4362
:100120005A630C230822216899430A432260A2687B
:100130001A43A260E2689A43083B1343E360F0234A
:10014000226A134303222362236893432B432360D1
:1001500016490091C046009B5A1E0092002BF9D10F
:10016000134B144A1A600A23A2692A43A261C046AB
:10017000A26A013B2A43A262002BF5D10191C0463D
:10018000019B5A1E0192002BF9D100F041F8052382
:10019000A2692A43A261C046C046A26A013B2A4323
:1001A000A262002BF4D1D3E7001002409235000088
:1001B00090200240012800007047FEE7704770471A
:1001C0007047000000000000000000000000000078
:1001D0001348002303801348854600F035F8124881
:1001E0001249134A002302E0D458C4500433C418FF
:1001F0008C42F9D30F4A104C002301E01360043203
:10020000A242FBD300F06EF800F054F8FEE7C046BF
:10021000C04603B509480A490160C04603BD000055
:100220000410024000100020C0000020C000002088
:100230000C040008C0000020DC00002090200240D8
:1002400000280000FEE70000154B16495A6882B0EE
:100250000A4080215A60144A09059160134A0192AC
:10026000C046019A511E0191002AF9D1196E01323E
:100270000A431A660222196E1142FCD007229968BD
:100280009143043A0A4338219A609A680A40182A2E
:10029000FBD11A6806490A401A6002B07047C0468E
:1002A00000100240FFFF00FE00ED00E0983A000061
:1002B000FFFEFFFF802310B50749084A1B05186899
:1002C000C85004339342FAD18022054B92059A60BC
:1002D000FFF71AFF002010BD00000018C000000842
:1002E00000ED00E070B500260C4C0D4D641BA41011
:1002F000A64209D1002600F019F80A4C0A4D641BE9
:10030000A410A64205D170BDB300EB589847013642
:10031000EEE7B300EB5898470136F2E744030008D4
:10032000440300084803000844030008F8B5C04629
:10033000F8BC08BC9E467047F8B5C046F8BC08BC7F
:040340009E4670471E
:04034400E9000008C4
:04034800C1000008E8
:10034C0000000000000000000000000000000000A1
:10035C000000000000000000000000000000000091
:10036C000000000000000000000000000000000081
:10037C000000000000000000000000000000000071
:10038C000000000000000000000000000000000061
:10039C000000000000000000000000000000000051
:1003AC000000000000000000000000000000000041
:1003BC000000000000000000000000000000000031
:1003CC000000000000000000000000000000000021
:1003DC000000000000000000000000000000000011
:1003EC000000000000000000000000000000000001
:1003FC0000000000000000000000000000000000F1
:04000005080001D11D
:00000001FF
