:020000040800F2
:10000000001000209906000845010008470100087B
:1000100000000000000000000000000000000000E0
:10002000000000000000000000000000490100087E
:1000300000000000000000004B0100084D01000816
:10004000E9060008E9060008E9060008E9060008D4
:10005000E9060008E9060008E9060008E9060008C4
:1000600000000000E9060008E906000800000000A2
:10007000E9060008E9060008E9060008000000009B
:10008000E9060008E906000800000000E90600088B
:1000900000000000E9060008E9060008E90600087B
:1000A00000000000E9060008E9060008E90600086B
:1000B000E906000800000000E90600080000000052
:1000C000054B82B01A6C02431A641B6C18400190F5
:1000D000019B02B07047C046001002400121054B51
:1000E00082B05A6B0A435A635B6B0B400193019BCE
:1000F00002B0704700100240074B82B01A680192AC
:10010000019A8022520219681142FCD019681142EA
:10011000FCD002B07047C04610E000E070B5412549
:10012000002340241000064A6D42834200DB70BD6C
:10013000CE5C566016682642FCD015600133F4E7A9
:10014000004400407047FEE77047704770470E4A12
:100150000E4B51681B68090CDB040904DB0C0B43D4
:10016000802189010B435360094B0A481B68516881
:100170001B040340084801400B4353608022074B97
:1001800012059A607047C04600100240040FFF1F1E
:10019000A40FFF1F0000FF01FFFF00FE00ED00E0C5
:1001A0008022034B920510B59A6000F0E5F8C04636
:1001B00000ED00E0002243088B4274D303098B4218
:1001C0005FD3030A8B4244D3030B8B4228D3030C27
:1001D0008B420DD3FF22090212BA030C8B4202D3C9
:1001E0001212090265D0030B8B4219D300E0090AF1
:1001F000C30B8B4201D3CB03C01A5241830B8B42FA
:1002000001D38B03C01A5241430B8B4201D34B03E2
:10021000C01A5241030B8B4201D30B03C01A524147
:10022000C30A8B4201D3CB02C01A5241830A8B42CC
:1002300001D38B02C01A5241430A8B4201D34B02B5
:10024000C01A5241030A8B4201D30B02C01A524119
:10025000CDD2C3098B4201D3CB01C01A52418309CD
:100260008B4201D38B01C01A524143098B4201D307
:100270004B01C01A524103098B4201D30B01C01A32
:100280005241C3088B4201D3CB00C01A52418308AC
:100290008B4201D38B00C01A524143088B4201D3D9
:1002A0004B00C01A5241411A00D201465241104639
:1002B0007047FFE701B5002000F006F802BDC04618
:1002C0000029F7D076E770477047C04603B47146FF
:1002D000490840004900095E49008E4403BC70474C
:1002E0000448054B10B5834203D0044B002B00D0CB
:1002F000984710BD6400002064000020000000004A
:1003000006480749091A8B10C90FC91810B54910BA
:1003100003D0044B002B00D0984710BD6400002090
:10032000640000200000000010B5074C2378002B6B
:1003300009D1FFF7D5FF054B002B02D0044800E0A0
:1003400000BF0123237010BD6800002000000000E2
:1003500074170008054B10B5002B03D0044905485D
:1003600000E000BFFFF7CCFF10BDC046000000005A
:100370006C00002074170008F0B5012085B0FFF76D
:100380009FFE8022A84D5205EB6B1343EB63EB6B92
:1003900013400293029B80232A685B0013432B6067
:1003A0008023DB002A681A42FCD0AB689F4A1340C6
:1003B0000722AB60AB689343AB603823AA68170091
:1003C0001F401A42FAD1AB68994AA0241340AB608F
:1003D000984A994B994E5A6005229F601A60984B33
:1003E000E4053360FFF77AFE2268964B1A408023BB
:1003F0005B00134310222360A261FFF76FFE2368A6
:10040000914A390013402360E3681340E3608F4B47
:10041000022218683B00806800F02CFA8022EB6B07
:1004200092021343EB63EB6BE12113400393039BB5
:1004300019233068C9025843FFF7BCFE6421060047
:10044000FFF73EFF080132306421FFF7B3FE64215D
:1004500005003000FFF7AEFE00017D4B2D18ADB258
:100460009D60DA687B497C4E0A40DA601A697B49F4
:1004700032401A61DA6820270A40DA605A69714905
:1004800080250A405A610C22D968ED000A43DA60DF
:100490008022D96892010A43DA60412252421A60EE
:1004A000FFF71CFEFFF71AFE3022236880209343DB
:1004B0003B432360A36840031343A360E368934373
:1004C000203A1343E360236A584A13402B432362C4
:1004D000C0238022216899430A432260A2681A43FC
:1004E000A260E2689A43803B1343E360226A5C4B5C
:1004F0001A408023DB0113432362FFF7E1FD8022D2
:10050000584C9205236958491B011B0913431822B3
:100510002361E3689343E360E368544ABB43E360C9
:10052000E368534F1340E360072362691343636139
:10053000E368504A13402B43E360E3684E4A13409C
:1005400080221D43E560E36852013340E360E368C5
:100550004A4E1343E360E3680B404949E360A262FB
:100560000A68484B1A408023DB0313430B60464B59
:100570000F211A886423100A08404343FA20150B00
:10058000800068431B180A2015090D4068433A8013
:100590001B180A409B181B030093A368DB070AD4AF
:1005A0008023A2681B0632401343A360A368002B7C
:1005B000FCDBFFF7A1FD0125A36833402B43A360BB
:1005C000FFF79AFDA3688020334004263343A360DD
:1005D0000001FFF775FD2D4B2D4A9A62FA22120198
:1005E000DA62702259689143503A0A435A601A6895
:1005F0002A431A606B46DD8023683342FCD02660B4
:10060000236C1D1C9BB2002B01D16B46DD88ADB263
:1006100029000098FFF7CEFD2A00030039881D4805
:1006200000F0FEFCE8E7C04600100240FFF0FFFFCC
:10063000FF8FFFFFBF5D000010E000E00000002022
:1006400000366E01FFFCFFFFFFFFFFFC14000020DF
:1006500000440040FFEFFFFFFFDFFFFFFFF9FFFF58
:10066000FF0FFFFF00240140FFFFFEFFFFBFFFFF62
:10067000640000203FF2FFFFFFF3FFFFEAFFFF7F70
:1006800008270140FFFF3FFF220EFF1F002C014003
:10069000701700008C1700080D488546FFF757FDBE
:1006A0000C480D490D4A002302E0D458C4500433CD
:1006B000C4188C42F9D30A4A0A4C002301E01360A3
:1006C0000432A242FBD300F02DFAFFF769FDFEE7EA
:1006D000001000200000002064000020E81700083F
:1006E00064000020D4010020FEE70000002310B5C4
:1006F000040003604360836081814366C2810361BB
:1007000043618361190008225C3000F0B5F90B4B9E
:10071000246263620A4BA3620A4BE3620A4B2363BF
:100720000A4B9C4205D00A4B9C4202D0094B9C428A
:1007300003D12000583000F019FA10BDE10900087B
:10074000090A0008410A00086D0A00088400002018
:10075000EC0000205401002010B5034A034904486E
:1007600000F06CF810BDC04608000020950E00088F
:100770001800002041680B4B10B50400994201D0CD
:1007800000F088FBA168084B994202D0200000F0DD
:1007900081FBE168054B994202D0200000F07AFB12
:1007A00010BDC04684000020EC0000205401002051
:1007B00010B5094B094A04211A6009480022FFF7C5
:1007C00095FF012209210748FFF790FF022212211D
:1007D0000548FFF78BFF10BDBC010020590700083A
:1007E00084000020EC0000205401002010B50248D5
:1007F00000F0BDF910BDC046C501002010B502488B
:1008000000F0B6F910BDC046C501002010B50400C7
:10081000FFF7ECFF236A002B02D0FFF7EFFF10BDBC
:10082000044B2362044B1B68002BF6D1FFF7C0FF7B
:10083000F3E7C04675070008BC010020F7B51400B7
:10084000002600900191A5686768013F04D52468DF
:10085000002CF8D13000FEBDAB89012B08D90E2247
:10086000AB5E013304D029000098019B98470643F2
:100870006835EAE7F0B51D00574B85B01E680400E7
:100880000F000092002E05D0336A002B02D13000F9
:10089000FFF7BCFF009B022B05D0012B00D997E08E
:1008A000002D00DA94E0636EDB0705D4A3899B0575
:1008B00002D4A06D00F05BF92100300000F0EAFAEC
:1008C000616B002908D023004433994202D03000E4
:1008D00000F050F9002363630023A3616360A389E0
:1008E0001B0603D53000216900F044F9A3893B4A77
:1008F0001340A381009B022B60D003AB210030008A
:1009000002AA00F0F3FAA3890343A381002D24D1A6
:10091000029D280000F078F90195071E48D1029B3E
:100920000193AB423FD101256D420C22A35E02220E
:100930001A43A2810022A260220047322260226173
:100940000122616E6261114204D19B0502D4A06D47
:1009500000F00EF9280005B0F0BD002FD9D0336AA1
:10096000002B02D13000FFF751FF009B012B03D178
:10097000A389009A1A43A2810C22A35E08221900BF
:10098000276027616561114013421BD0DA0717D534
:1009900000226D42A260A561626ED20701D49B0560
:1009A00012D50025D6E7019800F02EF9071EBAD01F
:1009B0008023A289019D1343A381D0E70025B4E7DA
:1009C000A560E9E7A160E7E7A06D00F0D1F8E8E7EE
:1009D00001256D42BEE7C046140000205CF3FFFF16
:1009E00070B50C000E25495F00F074F8002803DB99
:1009F000636D1B18636570BDA389024A1340A38110
:100A0000F9E7C046FFEFFFFFF8B51F008B8905002F
:100A10000C001600DB0505D50E23C95E002202235B
:100A200000F044F8A389054A28001340A38132004E
:100A30000E23E15E3B0000F061F8F8BDFFEFFFFF21
:100A400070B50C000E25495F00F030F80C22A35E53
:100A5000421C03D1044A1340A38170BD802252017D
:100A60001343A3816065F8E7FFEFFFFF10B50E2386
:100A7000C95E00F009F810BD03008218934200D14E
:100A8000704719700133F9E7002370B5064D040073
:100A900008002B6000F038FE431C03D12B68002BAC
:100AA00000D0236070BDC046C001002070B50400B6
:100AB000080011001A000023054D2B6000F03CFED9
:100AC000431C03D12B68002B00D0236070BDC046AF
:100AD000C001002070B50400080011001A000023B6
:100AE000054D2B6000F030FE431C03D12B68002B1A
:100AF00000D0236070BDC046C001002070B5040066
:100B0000080011001A000023054D2B60FFF706FBBB
:100B1000431C03D12B68002B00D0236070BDC0465E
:100B2000C001002070B500260C4C0D4D641BA410B4
:100B3000A64209D1002600F01DFE0A4C0A4D641B96
:100B4000A410A64205D170BDB300EB5898470136FA
:100B5000EEE7B300EB5898470136F2E7E0170008DC
:100B6000E0170008E4170008E01700087047704716
:100B70007047000070B505000C1E10D0043C2368BF
:100B8000002B00DAE418280000F0EAF81D4A136888
:100B9000002B05D163601460280000F0E9F870BDF7
:100BA000A34208D9206821188B42F3D119685B68E9
:100BB00009182160EEE71A005B68002B01D0A34200
:100BC000F9D911685018A0420BD1206809185018A3
:100BD00011608342E0D118685B684118116053606E
:100BE000DAE7A04202D90C232B60D5E72068211850
:100BF0008B4203D119685B680918216063605460F7
:100C0000CAE7C046CC01002010B5034B01001868AC
:100C100000F026F810BDC0461400002070B50F4E3D
:100C20000D0031680400002902D100F0E7F93060BE
:100C30002900200000F0E2F9431C03D101256D4298
:100C4000280070BD0323C51C9D43A842F8D0291A73
:100C5000200000F0D3F90130F2D1EFE7C801002005
:100C6000F7B50322CB1C9343083305001F000C2B60
:100C700034D20C27B94233D8280000F071F8374E2F
:100C800033681C00002C2FD139002800FFF7C6FF65
:100C90000400431C5FD134680094009B002B4AD1B0
:100CA000002C52D023682800E3180099019300F02B
:100CB000A5F9019B834248D123682800FF1A390017
:100CC000FFF7ACFF013040D02368DB1923603368A5
:100CD0005A68002A33D1009B336019E0002BC9DA2F
:100CE0000C232B600020FEBD2168C91B20D40B29DA
:100CF0000AD9E2192760A34204D132606368116007
:100D0000536005E05A60F9E76268A3420ED1326091
:100D1000280000F02DF8200007220B30231D9043FF
:100D2000C21A9842DFD01B1AA350DCE75A60EFE7E3
:100D300023006468A6E7009C63680093ADE71A008F
:100D40005B68A342FBD10023DAE70C2328002B6069
:100D500000F00EF8C6E70760DAE7C046CC010020D5
:100D600010B50248FFF703FF10BDC046C4010020C4
:100D700010B50248FFF7FCFE10BDC046C4010020BC
:100D8000F7B50C228B5E05000C001A075AD44A688E
:100D9000002A02DC0A6C002A4FDDE76A002F4CD0E3
:100DA000002280212E682A601A0049010A400B4265
:100DB00034D0626DA3895B0706D56368D21A636B72
:100DC000002B01D0236CD21A00232800E76A216A85
:100DD000B8470C23E25E431C06D129681D292ED892
:100DE0002B4BCB40DB072AD50023636023692360AC
:100DF000D20405D5431C02D12B68002B00D16065BD
:100E0000616B2E60002918D023004433994202D030
:100E10002800FFF7AFFE002363630EE001232800E4
:100E2000216AB8470200431CC4D12B68002BC1D0F3
:100E30001D2B01D0162B1DD12E60002021E0402358
:100E400013431BE00E69002EF7D00F680E60BA1B2B
:100E5000019200229B0700D14A69A260019B002BEE
:100E6000EBDDA36A32001F002800019B216AB8470E
:100E7000002807DC4023A28913431BB20120A38171
:100E80004042FEBD019B36181B1A0193E6E7C0469F
:100E9000010040200B6970B505000C00002B02D149
:100EA0000025280070BD002804D0036A002B01D162
:100EB000FFF7ACFC0C22A35E002BF1D0626ED207D0
:100EC00004D49B0502D4A06DFFF751FE2800210039
:100ED000FFF756FF636E0500DB07E2D4A3899B058D
:100EE000DFD4A06DFFF744FEDBE70000F0B50E0095
:100EF0001D000E23C95E140097B000290CDAB289D8
:100F00008023110019401A4214D18023DB000020F5
:100F10002960236017B0F0BD6A4600F04BF8002846
:100F2000EDDBF02301991B021940044BC9184B4219
:100F30005941EAE700214023E9E7C04600E0FFFF0E
:100F4000F7B502268B8905000C00334206D023003A
:100F500047332360236101236361F7BD6A4601AB18
:100F6000FFF7C4FF009F28003900FFF779FE0C222D
:100F7000A35E002806D19A05EFD4032293431E43B3
:100F8000A681E4E780221343A381019B20602061B6
:100F90006761002BE1D028000E23E15E00F01CF811
:100FA0000028DAD00323A2899A43023B1343A3818A
:100FB000D3E70000002370B5064D040008001100BF
:100FC0002B6000F0A9FB431C03D12B68002B00D041
:100FD000236070BDC0010020002370B5064D0400E1
:100FE00008002B6000F0A0FB431C03D12B68002BF2
:100FF00000D0236070BDC046C0010020002370B542
:10100000064D040008002B6000F0A6FB431C03D132
:101010002B68002B00D0236070BDC046C0010020AB
:101020000FB407B5054904AB086804CB8168019388
:1010300000F02EF803B008BC04B0184714000020DC
:10104000936810B5013B9360002B04DA9469A342C6
:1010500007DB0A2905D01368581C106019700800B6
:1010600010BD00F0A9FA0100F9E7F8B506000F007D
:101070001400D518AC4201D1002007E021783A00D5
:101080003000FFF7DDFF0134431CF3D1F8BD000051
:10109000F0B59FB00D0017001E000290002804D08C
:1010A000036A002B01D1FFF7B1FB6B6EDB0705D4A0
:1010B000AB899B0502D4A86DFFF759FDAB891B07CF
:1010C00002D52B69002B13D12900029800F0B6FA43
:1010D00000280DD06B6EDB0703D5012040421FB006
:1010E000F0BDAB899B05F8D4A86DFFF741FDF4E78F
:1010F000002306AC6361203363761033A376059634
:101100003E003378002B01D0252B48D1F31B0393ED
:10111000BE420BD03A0029000298FFF7A6FF01302B
:1011200000D1AAE06369039A9B1863613378002BAE
:1011300000D1A2E00122532100235242626002AAA0
:101140005218771C2360E360A3601370A365574BAC
:10115000052218003978039300F0CAFA7E1C226831
:1011600000281ED1D30604D5202302A95330091824
:101170000B70130704D553202B2302A909180B70F9
:101180003B782A2B15D03E0000210A20E3683278F4
:10119000771C303A092A4ED9002910D116E00136C1
:1011A000AFE7039B3700C01A01238340134323603A
:1011B000CDE7059B191D1B680591002B01DBE36042
:1011C00004E05B42E36002231343236033782E2B59
:1011D0000CD173782A2B33D1059B02361A1D1B685C
:1011E0000592002B01DA01235B426360304F03223A
:1011F0003800317800F07CFA002806D04023C01B6C
:10120000834022680136134323603178062229483F
:10121000771C217600F06CFA00283DD02648002883
:1012200021D10722059B0733934308330593636954
:101230001B18636164E743433E0001219B18A6E746
:1012400000230A201900013663603278771C303A97
:10125000092A03D9002BC9D06160C7E741433E008A
:1012600001238918F1E705AA009221002A00134BF7
:10127000029800E000BF431CD9D16B6EDB0705D498
:10128000AB899B0502D4A86DFFF772FCAB895B06A6
:1012900000D522E7606922E705AA009221002A0012
:1012A000064B029800F07CF8E5E7C046AB17000853
:1012B000B1170008B5170008000000006B10000807
:1012C000F7B5160001938A680B690C0000909342F1
:1012D00000DA13002200336043321278002A01D072
:1012E0000133336023689B0602D5336802333360D1
:1012F0002268062315001D401A4227D023004333DD
:101300001B785A1E93412268920630D4220001991C
:101310000098089D4332A847013025D00622236853
:1013200000251340042B05D13368E568ED1AEB4323
:10133000DB171D40A3682269934201DD9B1AED185B
:101340000026B54220D1002010E00135E368326864
:101350009B1AAB42D2DD2200012301990098089F1D
:101360001932B8470130F0D101204042FEBD302093
:10137000E1184331087021005A1C45310978A21840
:10138000433202331170C1E7220001230199009812
:10139000089F1A32B8470130E6D00136D1E7000085
:1013A000F0B58BB006920A00433207930590039282
:1013B0000A7E0C00109B782A09D8622A0BD8002AD2
:1013C00000D1BBE07A490491582A00D18FE0250072
:1013D00042352A7022E0100063381528F7D8FEF74E
:1013E00075FF16001F00F6FFF6FFF6FFF6FF1F0061
:1013F000F6FFF6FFF6FFF6FFA00036007F00F6FFCF
:10140000F6FFB100F6FF3600F6FFF6FF8300250079
:101410001A684235111D196013682B7001239FE073
:1014200018680968021D0D060BD506681A60002EA3
:1014300003DA2D23039A764213705D4B0A27049337
:1014400019E006681A604906F1D536B2EFE71A6866
:10145000096840CA080602D4490600D5B6B21A6027
:10146000237E534A0A2704926F2B00D1023F2300A8
:10147000002243331A706368A360002B06DB04214B
:101480002268039D8A43226033430CD0039D3000C1
:101490003900FEF715FF049B013D5B5C2B703300A8
:1014A00006009F42F3D9082F09D12368DB0706D530
:1014B000626823699A4202DC3023013D2B70039B52
:1014C0005B1B2361079B210000930598069B09AADB
:1014D000FFF7F6FE013048D1012040420BB0F0BDCD
:1014E000202209680A4322607822324904912100AF
:1014F00045310A701968226840C9100602D45006A6
:1015000000D5B6B21960D30702D520231343236058
:10151000002E01D01027AAE72022236893432360DE
:10152000F8E71A680D68101D4969186013682E06DF
:1015300001D5196002E06D06FBD519800023039DDB
:101540002361BFE71A68111D196015680021280082
:10155000626800F0CDF8002801D0401B606063682D
:1015600023610023039A1370ACE72A0023690699CC
:101570000598079DA8470130AED023689B0715D476
:10158000099BE0689842A9DA1800A7E72200012326
:1015900006990598079E1932B04701309CD0013555
:1015A000E368099A9B1AAB42F0DCE9E70025F7E70C
:1015B000BC170008CD170008F8B506000D00140090
:1015C000002804D0036A002B01D1FFF71FF9A3699B
:1015D000A360A3891B0702D52369002B09D1210031
:1015E000300000F02BF8002803D001256D422800C0
:1015F000F8BD23692068EFB2C01A6369EDB2834277
:1016000005DC21003000FFF745FC0028EDD1A36880
:101610000130013BA36023685A1C22601F7063697C
:10162000834204D0A389DB07E1D50A2DDFD1210055
:101630003000FFF72FFC0028D9D0D6E72B4B70B530
:10164000050018680C00002804D0036A002B01D1A3
:10165000FFF7DCF80C22A35E1A0722D4DA0607D4BF
:1016600009222A60373201201343A381404270BD12
:101670005A0713D5616B002908D0230044339942DF
:1016800002D02800FFF776FA002363632422A3899F
:1016900093430022626022691BB222600822134336
:1016A000A3812269002A07D19A0501D51B0603D51B
:1016B00021002800FFF744FC0C23E25E0121130007
:1016C0000B400A420CD00023A36063695B42A36114
:1016D000002023698342CAD11306C8D54023C2E73C
:1016E000910700D46369A360F2E7C04614000020AC
:1016F000C9B28218904201D10020704703788B4212
:10170000FBD00130F6E7000058220120014B404297
:101710001A607047C001002058220120014B40424E
:101720001A607047C00100205822024B00201A6046
:101730007047C046C001002058220120014B4042A2
:101740001A607047C001002058220120014B40421E
:101750001A607047C0010020044A03001068002886
:1017600002D0C318136070470148FAE7D001002087
:10177000D8010020F8B5C046F8BC08BC9E467047AA
:0C178000F8B5C046F8BC08BC9E46704797
:10178C00565245465F433D3078253034582041440D
:10179C00433D2575205664643D25756D760A0023FE
:1017AC002D302B2000686C4C006566674546470061
:1017BC00303132333435363738394142434445467B
:1017CC000030313233343536373839616263646511
:0417DC0066000000A3
:0417E00055030008A5
:0417E40029030008CD
:1017E80000127A0000100000000000000300000052
:1017F8008400002018000020000000008400002061
:10180800EC0000205401002000000000000000004F
:1018180000000000000000000000000000000000C0
:1018280000000000000000000000000000000000B0
:1018380000000000000000000000000000000000A0
:04184800000000009C
:040000050800069950
:00000001FF
