:020000040800F2
:100000000804002025040008DF020008E1020008BF
:1000100000000000000000000000000000000000E0
:10002000000000000000000000000000E3020008E3
:100030000000000000000000E5020008E7020008E0
:10004000000000000000000000000000EB020008BB
:10005000CF030008DF030008390400083B04000850
:100060000000000000000000000000000000000090
:100070003D0400083F04000841040008000000009F
:1000800000000000430400080000000045040008D0
:10009000000000000000000000000000470400080D
:1000A0000000000049040008000000004B040008A4
:1000B0000000000000000000000000000000000040
:1000C00038B54D4C2068A10D0143216020684005E2
:1000D000FCD5A06849490140A160A0680721884378
:1000E000A0603820A1680140FCD1A06844490140CB
:1000F000A160444D280000F087F8280000F091F836
:100100000120616B01436163616B084000900098BE
:10011000A020C00501680C22914304220A4302601A
:1001200081680C220A438260802189020222826156
:1001300081618261816182618161826181618261AB
:10014000816182618161826181618261816182619B
:10015000816182618161826181618261816182618B
:10016000816182618161826181618261816182617B
:10017000816182618161826181618261816182616B
:10018000816182618161826181618261816182615B
:10019000816182618161826181618261816182614B
:1001A000816182618161826181618261816182613B
:1001B000816182618161826181618261816182612B
:1001C000816182618161826181618261816182611B
:1001D000816182618161826181618261816182610B
:1001E00081618261816182618161826181618261FB
:1001F0008161826181619AE700100240FFF0FFFF98
:10020000FF8FFFFF00366E0110B5074CFA21890001
:1002100000F00EF8401E60600020A0600520206005
:1002200010BD02490860704710E000E000000020A7
:100230000022030A8B420BD203098B4219D24308D6
:100240008B422ED2411A00D20146524110467047CD
:10025000FF2209023FD012068B4205D31212090277
:100260008B4201D31212090203098B4219D300E019
:10027000090AC3098B4201D3CB01C01A5241830939
:100280008B4201D38B01C01A524143098B4201D3E7
:100290004B01C01A524103098B4201D30B01C01A12
:1002A0005241C3088B4201D3CB00C01A524183088C
:1002B0008B4201D38B00C01A524143088B4201D3B9
:1002C0004B00C01A5241884200D3401A5241CFD24B
:1002D00001461046704708B500F006F808BD7047A3
:1002E000FEE77047704770477047FEE781B01048DF
:1002F00010490A68120C120403689BB213430B6086
:100300000A680D4B1340406C00040C4A02401A432B
:100310000A60802000050A4908600A48009000BF72
:100320000098411E00910028F9D101B070470000EB
:100330000001FF1F04100240FFFF00FE0000FF014C
:1003400008ED00E0C027090030B401210EE0036889
:10035000C318446808300C4202D04D462C19641E64
:100360001D6825601B1D241D121FF9D10268001D88
:10037000002AECD130BC704710B5074979441831D8
:10038000064C7C44163404E0081D0A688918884726
:100390000100A142F8D110BD5C0000006C0000001B
:1003A00000F00FF8002801D0FFF7E6FF00BF00BF04
:1003B000002000BF00BF00BF00BFFFF781FE00F0BC
:1003C00002F80120704780B500F002F801BDFEE799
:1003D00000F000F80746384600F002F8FBE7FEE7B9
:1003E00080B500BF00BF024A11001820ABBEFBE77A
:1003F0002600020055FFFFFF040000003800000047
:1004000000000020000000000548014603B46846D3
:1004100080F3098800BF00BF00BF00BFFFF7C0FF27
:10042000A5EDF5FE0148804701480047ED020008B0
:100430000904000800366E01FEE7FEE7FEE7FEE76E
:0C044000FEE7FEE7FEE7FEE7FEE7FEE752
:0400000508000409E2
:00000001FF
