:020000040800F2
:1000000000100020C9010008BD010008BF01000860
:1000100000000000000000000000000000000000E0
:10002000000000000000000000000000C101000806
:100030000000000000000000C3010008C501000826
:100040004502000845020008450200084502000874
:100050004502000845020008450200084502000864
:1000600000000000450200084502000800000000F2
:100070004502000845020008450200080000000093
:100080004502000845020008000000004502000883
:100090000000000045020008450200084502000873
:1000A0000000000045020008450200084502000863
:1000B00045020008000000004502000800000000A2
:1000C00010B5064C2378002B07D1054B002B02D02E
:1000D000044800E000BF0123237010BDC0000020D1
:1000E000000000002C030008044B10B5002B03D0C7
:1000F0000349044800E000BF10BDC04600000000F6
:10010000C40000202C03000880220C4B1206D96B7F
:100110000A43DA63596D0A4A11408022D2020A4327
:100120005A658022074BD203DA60012219690A431B
:100130001A61102219690A431A61704700100240BF
:10014000FFFFF3FF007C004001222020184B70B518
:10015000596B0C250A435A635A6B002102435A63B8
:10016000A022D205516114680431AC4321431160CF
:100170000821D468AC432143D16030210D4A146872
:100180008C4320431060906801439160106A0A49D3
:100190000840C021C9000143116280219A684904C6
:1001A0001202120A0A439A60FFF7AEFF00F0CCF881
:1001B0000010024000140050FFF0FFFF7047FEE700
:1001C00070477047704700001448002303801448AC
:1001D000854614481449154A002302E0D458C450F7
:1001E0000433C4188C42F9D311481249124A00232F
:1001F00002E0D458C4500433C4188C42F9D30F4AD7
:100200000F4C002301E013600432A242FBD300F044
:100210001BF800F067F800F04DF8FEE7041002400C
:1002200000100020E0030020B80400202004000893
:10023000C0000020C000002020040008C0000020F2
:10024000DC000020FEE70000144A154B1268154838
:10025000120459680240144882B001400A438021C8
:100260005A60124A09059160114A0192C046019AEA
:10027000511E0191002AF9D1196E01320A431A6602
:100280000222196E1142FCD007219A688A439A60B3
:10029000382299681142FCD102B07047A40FFF1FA9
:1002A000001002400000FF01FFFF00FE00ED00E033
:1002B000721F0000802310B50749084A1B05186803
:1002C000C85004339342FAD18022054B92059A60BC
:1002D000FFF73AFF002010BD00000018C000000822
:1002E00000ED00E070B500260C4C0D4D641BA41011
:1002F000A64209D1002600F019F80A4C0A4D641BE9
:10030000A410A64205D170BDB300EB589847013642
:10031000EEE7B300EB5898470136F2E758030008C0
:10032000580300085C03000858030008F8B5C046ED
:10033000F8BC08BC9E467047F8B5C046F8BC08BC7F
:100340009E4670470000000001B40248844601BC8C
:08035000604700BF35040020E6
:04035800E9000008B0
:04035C00C1000008D4
:10036000000000000000000000000000000000008D
:10037000000000000000000000000000000000007D
:10038000000000000000000000000000000000006D
:10039000000000000000000000000000000000005D
:1003A000000000000000000000000000000000004D
:1003B000000000000000000000000000000000003D
:1003C000000000000000000000000000000000002D
:1003D000000000000000000000000000000000001D
:1003E000000000000000000000000000000000000D
:1003F00000000000000000000000000000000000FD
:1004000000000000000000000000000000000000EC
:1004100000000000000000000000000000000000DC
:1004200083230222584310B50F4B104C8008A04282
:100430000CD8DA69022298611969114319611968A7
:100440001142FCD059680A435A6010BDD969084965
:100450009C61401819691143196119681142FCD057
:10046000596811435960E2E7007C004060EA0000EF
:10047000A015FFFFFA2070B50001FFF7D1FF00249F
:1004800001256602FA20094A000153681B0C1B046F
:100490009B195B195360FFF7C3FF054B22359D4243
:1004A000F0D10F2CEBD00134EAE7C0460010024037
:1004B000210200000121054A13698B431361044A9C
:1004C000D36B8B40CB40D3637047C046007C004069
:1004D00000100240000000000000000000000000CA
:1004E000C04607B503480168012291430160C04638
:0804F00007BD0000902002404E
:04000005080001C925
:00000001FF
