:020000040800F2
:1000000000100020A10100089501000897010008D8
:1000100000000000000000000000000000000000E0
:10002000000000000000000000000000990100082E
:1000300000000000000000009B0100089D01000876
:100040001D0200081D0200081D0200081D02000814
:100050001D0200081D0200081D0200081D02000804
:10006000000000001D0200081D0200080000000042
:100070001D0200081D0200081D020008000000000B
:100080001D0200081D020008000000001D020008FB
:10009000000000001D0200081D0200081D020008EB
:1000A000000000001D0200081D0200081D020008DB
:1000B0001D020008000000001D02000800000000F2
:1000C00010B5064C2378002B07D1054B002B02D02E
:1000D000044800E000BF0123237010BDC0000020D1
:1000E0000000000004030008044B10B5002B03D0EF
:1000F0000349044800E000BF10BDC04600000000F6
:10010000C40000200403000880220C4B1206D96BA7
:100110000A43DA63596D0A4A11408022D2020A4327
:100120005A658022074BD203DA60012219690A431B
:100130001A61102219690A431A61704700100240BF
:10014000FFFFF3FF007C00400123114810B5426B14
:10015000082413434363A0230C22DB051968914351
:1001600021431960D96891430C43DC6099680A43C4
:100170009A60F022196A0A431A62842283689205FF
:100180001B021B0A13438360FFF7BEFF00F0C8F891
:10019000001002407047FEE770477047704700004C
:1001A0001448002303801448854614481449154A0E
:1001B000002302E0D458C4500433C4188C42F9D34D
:1001C00011481249124A002302E0D458C4500433A3
:1001D000C4188C42F9D30F4A0F4C002301E013607E
:1001E0000432A242FBD300F01BF800F067F800F0E5
:1001F0004DF8FEE70410024000100020E00300204C
:10020000F8040020F8030008C0000020C00000200F
:10021000F8030008C0000020DC000020FEE700001A
:10022000144A154B126815481204596802401448C4
:1002300082B001400A4380215A60124A0905916048
:10024000114A0192C046019A511E0191002AF9D12A
:10025000196E01320A431A660222196E1142FCD04D
:1002600007219A688A439A60382299681142FCD122
:1002700002B07047A40FFF1F001002400000FF01F2
:10028000FFFF00FE00ED00E0721F0000802310B5AC
:100290000749084A1B051868C85004339342FAD12D
:1002A0008022054B92059A60FFF74EFF002010BD9B
:1002B00000000018C000000800ED00E070B5002646
:1002C0000C4C0D4D641BA410A64209D1002600F071
:1002D00019F80A4C0A4D641BA410A64205D170BD42
:1002E000B300EB5898470136EEE7B300EB58984758
:1002F0000136F2E730030008300300083403000839
:1003000030030008F8B5C046F8BC08BC9E467047EC
:10031000F8B5C046F8BC08BC9E4670470000000017
:1003200001B40248844601BC604700BF3504002088
:04033000E9000008D8
:04033400C1000008FC
:1003380000000000000000000000000000000000B5
:1003480000000000000000000000000000000000A5
:100358000000000000000000000000000000000095
:100368000000000000000000000000000000000085
:100378000000000000000000000000000000000075
:100388000000000000000000000000000000000065
:100398000000000000000000000000000000000055
:1003A8000000000000000000000000000000000045
:1003B8000000000000000000000000000000000035
:1003C8000000000000000000000000000000000025
:1003D8000000000000000000000000000000000015
:1003E8000000000000000000000000000000000005
:1003F80083230222584310B50F4B104C8008A042AB
:100408000CD8DA69022298611969114319611968CF
:100418001142FCD059680A435A6010BDD96908498D
:100428009C61401819691143196119681142FCD07F
:10043800596811435960E2E7007C004060EA000017
:10044800A015FFFF70B51C4C1C48FFF7D1FF63686F
:100458001B4A1B0C1B04134363608023DB002268C8
:100468001A42FCD00023E360802322685B04134314
:10047800236080239B0422681A42FCD10222A368CD
:100488001B0C1B041343A3603632A3681340102BC4
:10049800FBD19E2636020125FA20636800011B0C59
:1004A8001B042B4333436360FFF7A2FF054B223540
:1004B8009D42F1D1EFE7C0460010024070170000DE
:1004C800019E0000210200000121054A13698B43A7
:1004D8001361044AD36B8B40CB40D3637047C0464B
:1004E800007C0040001002400000000000000000F6
:1004F800C04607B503480168012291430160C04620
:0805080007BD00009020024035
:04000005080001A14D
:00000001FF
